:1000000012C019C018C017C016C015C014C013C044
:1000100012C011C010C00FC00EC00DC00CC00BC06C
:100020000AC009C008C011241FBECFE5D4E0DEBF5E
:10003000CDBF27D2C8C2E4CFC69AC79A959A969ADE
:10004000979AC09AC19AC29AC39AC49A919A909A5E
:10005000AD9AAC9AAB9AAA9AA99AA89AC59A949A78
:10006000939A929A0895C698C79895989698979853
:10007000C098C198C298C398C49891989098AD9828
:10008000AC98AB98AA98A998A898C5989498939872
:1000900092980895939A88E893E129E130E0F90174
:1000A0003197F1F70197D9F7C39A88E893E129E1ED
:1000B00030E0F9013197F1F70197D9F7AC9A88E868
:1000C00093E129E130E0F9013197F1F70197D9F790
:1000D000959A88E893E129E130E0F9013197F1F749
:1000E0000197D9F7A89A88E893E129E130E0F9016E
:1000F0003197F1F70197D9F7C09A88E893E129E1A0
:1001000030E0F9013197F1F70197D9F7909A88E833
:1001100093E129E130E0F9013197F1F70197D9F73F
:10012000AA9A88E893E129E130E0F9013197F1F7E3
:100130000197D9F7C49A88E893E129E130E0F90101
:100140003197F1F70197D9F7929A88E893E129E17D
:1001500030E0F9013197F1F70197D9F7C69A88E8AD
:1001600093E129E130E0F9013197F1F70197D9F7EF
:10017000AD9A88E893E129E130E0F9013197F1F790
:100180000197D9F7979A88E893E129E130E0F901DE
:100190003197F1F70197D9F7C59A88E893E129E1FA
:1001A00030E0F9013197F1F70197D9F7C19A88E862
:1001B00093E129E130E0F9013197F1F70197D9F79F
:1001C000AB9A88E893E129E130E0F9013197F1F742
:1001D0000197D9F7C79A88E893E129E130E0F9015E
:1001E0003197F1F70197D9F7919A88E893E129E1DE
:1001F00030E0F9013197F1F70197D9F7C29A88E811
:1002000093E129E130E0F9013197F1F70197D9F74E
:10021000A99A88E893E129E130E0F9013197F1F7F3
:100220000197D9F7969A88E893E129E130E0F9013E
:100230003197F1F70197D9F7949A88E99AE329E180
:1002400030E0F9013197F1F70197D9F70895C69A8F
:10025000C79A959A969A979AC09AC19AC29AC39A3F
:10026000C49A0895919A909AAD9AAC9AAB9AAA9A28
:10027000A99AA89AC59A949A939A929A089540E056
:1002800050E024ED30E3919AC9010197F1F791987C
:10029000C9010197F1F7909AC9010197F1F7909878
:1002A000C9010197F1F7AD9AC9010197F1F7AD982E
:1002B000C9010197F1F7AC9AC9010197F1F7AC9820
:1002C000C9010197F1F7AB9AC9010197F1F7AB9812
:1002D000C9010197F1F7AA9AC9010197F1F7AA9804
:1002E000C9010197F1F7A99AC9010197F1F7A998F6
:1002F000C9010197F1F7A89AC9010197F1F7A898E8
:10030000C9010197F1F7C59AC9010197F1F7C5989D
:10031000C9010197F1F7949AC9010197F1F79498EF
:10032000C9010197F1F7939AC9010197F1F79398E1
:10033000C9010197F1F7929AC9010197F1F79298D3
:10034000C9010197F1F74F5F5F4F4A30510509F03E
:100350009ACF88DF089540E050E024ED30E3919A91
:10036000A99AC9010197F1F7A9989198C901019734
:10037000F1F7909AA89AC9010197F1F7A898909877
:10038000C9010197F1F7AD9AC59AC9010197F1F733
:10039000C598AD98C9010197F1F7AC9A949AC90133
:1003A0000197F1F79498AC98C9010197F1F7AB9ACE
:1003B000939AC9010197F1F79398AB98C9010197F6
:1003C000F1F7AA9A929AC9010197F1F79298AA981F
:1003D000C9010197F1F74F5F5F4F4A30510509F0AE
:1003E000BECF40DF089540E050E024ED30E3919A25
:1003F000C9010197F1F7909A929AC9010197F1F713
:10040000AD9A939AC9010197F1F7AC9A949AC901F0
:100410000197F1F7AB9AC59AC9010197F1F7AA9A2A
:10042000A89AC9010197F1F7A99AC9010197F1F7B3
:10043000A998C9010197F1F7A898AA98C90101974D
:10044000F1F7C598AB98C9010197F1F79498AC986A
:10045000C9010197F1F79398AD98C9010197F1F798
:1004600092989098C9010197F1F79198C901019765
:10047000F1F74F5F5F4F4A30510509F0B8CFF2DE18
:100480000895CF93DF938FEF87BB84BB81BB20E3BD
:1004900035E7C9E1D0E005C0CE010197F1F7215061
:1004A000304021153105C1F7C7DD80E197E2FE013B
:1004B0003197F1F70197D9F7D6DD80E197E2FE0198
:1004C0003197F1F70197D9F7E5DDCDDD80E197E2CE
:1004D000FE013197F1F70197D9F7B9DED0DE80E15F
:1004E00097E2FE013197F1F70197D9F7BCDD80E182
:1004F00097E2FE013197F1F70197D9F780E197E292
:10050000FE013197F1F70197D9F796DD80E197E287
:10051000FE013197F1F70197D9F7A5DD80E197E268
:10052000FE013197F1F70197D9F7B4DD9CDD80E149
:1005300097E2FE013197F1F70197D9F788DE0BDFDB
:1005400080E197E2FE013197F1F70197D9F78BDD52
:1005500080E197E2FE013197F1F70197D9F780E149
:1005600097E2FE013197F1F70197D9F765DD80E158
:1005700097E2FE013197F1F70197D9F774DD80E139
:1005800097E2FE013197F1F70197D9F783DD6BDD33
:1005900080E197E2FE013197F1F70197D9F757DE35
:1005A00022DF80E197E2FE013197F1F70197D9F759
:1005B0005ADD80E197E2FE013197F1F70197D9F713
:0A05C00020E335E769CFF894FFCF80
:00000001FF
